:020000040800F2
:10000000880600209D0100081322000849200008EE
:1000100011220008F90200080D2C00080000000061
:10002000000000000000000000000000C9240008DB
:10003000FB0200080000000015220008CB24000885
:10004000B7010008B7010008B7010008B7010008B0
:10005000B7010008B7010008B7010008B7010008A0
:10006000B7010008B7010008B7010008B701000890
:10007000B7010008B7010008B7010008B701000880
:10008000B7010008B7010008B7010008B701000870
:10009000B7010008B7010008B7010008B701000860
:1000A000B7010008B7010008B7010008B701000850
:1000B000B7010008B7010008B7010008B701000840
:1000C000B7010008B7010008B7010008B701000830
:1000D000B7010008B7010008F52B0008012C000843
:1000E000B7010008B7010008B7010008B701000810
:1000F000B7010008B7010008B7010008B701000800
:10010000B7010008B7010008B7010008B7010008EF
:10011000B7010008B7010008B7010008B7010008DF
:10012000B7010008B7010008B7010008B7010008CF
:10013000B7010008B7010008B7010008B7010008BF
:10014000B7010008B7010008B7010008B7010008AF
:10015000B7010008B7010008B7010008B70100089F
:10016000B7010008B7010008B7010008B70100088F
:10017000B7010008B7010008B7010008000000003F
:10018000B7010008B7010008DFF80CD000F0A2F8B2
:1001900000480047652D0008880600200648804773
:1001A00006480047FEE7FEE7FEE7FEE7FEE7FEE75C
:1001B000FEE7FEE7FEE7FEE75D250008890100088F
:1001C0002DE9F05F0546002092469B46884606468C
:1001D000814640241BE0284641464746224600F01F
:1001E00068F853465A46C01A914110D31146184632
:1001F000224600F04FF82D1A67EB01084F462246C1
:100200000120002100F046F817EB00094E41201EA6
:10021000A4F10104DFDC484631462A46434600F09B
:1002200000B830BCBDE8C09F40EA01039B0703D083
:1002300009E008C9121F08C0042AFAD203E011F825
:10024000013B00F8013B521EF9D27047D2B201E0E7
:1002500000F8012B491EFBD270470022F6E710B5CB
:1002600013460A4604461946FFF7F0FF204610BD24
:1002700030B505462A460B4612F8010B13F8014B20
:1002800008B1A042F8D01CB1002802D06D1CF1E7E3
:10029000284630BD202A04DB203A00FA02F1002073
:1002A00070479140C2F1200320FA03F319439040B4
:1002B0007047202A04DB203A21FA02F0002170471F
:1002C00021FA02F3D040C2F12002914008431946BE
:1002D00070470000064C074D06E0E06840F001035F
:1002E00094E8070098471034AC42F6D3FFF750FF6C
:1002F000742E0008942E0008FEE7704772B6FEE7E1
:100300002DE9F047044690F850009AB00E464FF0A1
:100310000009012816D0012084F850000025159509
:100320001695324F2068B84210D1DFF8C480CDF85E
:100330000080404601F097FE8246206801F093FE5F
:1003400060B10EE002201AB0BDE8F087606D40F0A9
:100350002000606584F850500120F4E7BAF1000FE6
:100360000AD0606D40F0200060654FF0010900BFC9
:1003700084F850504846E6E71E4831681E4A002976
:10038000816840F61F7321F460411CD094F830C09E
:1003900041EA4C31D6F804C041EA0C018160B968E9
:1003A000D8F8087001F0010107F00107926839439D
:1003B00002F001021143DBD1B26831681143826857
:1003C0009A4311430FE08160B968D8F8086001F0E2
:1003D000010106F001069268314302F00102114367
:1003E000C6D1816899438160C2E7000000000450D3
:1003F0000001045000030450000204502DE9F84F9E
:1004000000270446009790F85000DFF8BC930D4693
:10041000B846012811D0012684F85060206801F008
:100420001EFE60B1606D40F0200060655FF0010766
:1004300084F85080384600F0DFB90220FBE7686896
:100440000C23052812D8022807D0032807D0042837
:1004500007D0052807D0062007E06B6006E01220D1
:1004600003E0182001E04FF480706860D5E90021B6
:10047000206803EA91131844036B01F01F014FF049
:100480001F0C0CFA01FCC2F3846223EA0C038A40BD
:1004900013430363206801F0E2FD8246206801F007
:1004A000DAFD5AEA00001DD1AA682968206801F027
:1004B000DEFD20686969C268C2F3C1025200914042
:1004C0002A69042A0FD000EB82002B68026EDFF845
:1004D000FCC203F0F84302EA0C020B431A4342F059
:1004E0000041016672E0002101F0AFFD4003206889
:1004F0004FF0000172D001F0A8FD90FAA0F0B0FA20
:1005000080F1286842036ED090FAA0F0B0FA80F033
:10051000814204D100221146206801F0B7FD01217B
:10052000206801F092FD400320684FF001015DD08A
:1005300001F08BFD90FAA0F0B0FA80F12868420338
:1005400059D090FAA0F0B0FA80F0814204D1002294
:100550000121206801F09AFD0221206801F075FD5B
:10056000400320684FF0020148D001F06EFD90FA80
:10057000A0F0B0FA80F12868420344D090FAA0F0CD
:10058000B0FA80F0814204D100220221206801F0FB
:100590007DFD0321206801F058FD400320684FF0E5
:1005A000030133D001F051FD90FAA0F0B0FA80F1D0
:1005B000286842032FD090FAA0F0B0FA80F0814270
:1005C00004D100220321206801F060FD20688168C9
:1005D00011F0010F22D0ACE000E004E001F035FDA5
:1005E000C0F384618DE7C0F3846091E701F02DFDD5
:1005F000C0F38461A2E7C0F38460A6E701F025FDA3
:10060000C0F38461B7E7C0F38460BBE701F01DFD70
:10061000C0F38461CCE7C0F38460D0E72A7B29680B
:1006200050F8B03FC1F3120C23EA0C0302F0180C8F
:10063000674A22FA0CF20A4013430360E96849450D
:1006400077D1286841031CD090FAA0F1B1FA81F16A
:10065000491C01F01F0109294FEA403132D8002915
:1006600012D000BF90FAA0F1B1FA81F101F10101BD
:1006700001F01F0106FA01F609D100BFC0F3846141
:1006800009E0C0F38461E3E7C0F38461EEE790FA28
:10069000A0F1B1FA81F101F1010101F01F0146EA77
:1006A000816102D1C0F3846003E090FAA0F0B0FA57
:1006B00080F000F1010000F01F0000EB400041EA73
:1006C000005132E000290ED090FAA0F1B1FA81F188
:1006D00001F1010101F01F0106FA01F606D100BF88
:1006E000C0F3846106E0C0F38461F1E790FAA0F101
:1006F000B1FA81F101F1010101F01F0146EA8161C6
:1007000002D1C0F3846003E090FAA0F0B0FA80F068
:1007100000F1010000F01F002E4A00EB400002EB48
:10072000005041EA000141F00071AA68206801F020
:100730009EFC29482A6802423FF47AAE2748816825
:10074000274E284B284D01F0E071B2421DD10E0218
:100750001BD422689A4202D0AA427FF469AE826812
:1007600041F4000122F0E0720A4382601F482049F0
:100770000068B0FBF1F0401C00EB4000800000E09E
:10078000401E00900028FBD152E61A4EB24209D119
:10079000CE0107D422689A4201D0AA42F4D141F096
:1007A00080710AE06FF00045EA42EDD14A02EBD4D5
:1007B00022689A42E8D141F48001826822F0E07216
:1007C0000A43826034E6000000007F4000F0FF032F
:1007D000FFFF0700000020FE000008800003045017
:1007E000000052C700000450000204501000002016
:1007F000400D0300000084CB18BCBDE8E08F000072
:10080000F8B54FF0000504002E46009502D0606D4B
:1008100010B107E00120F8BD204600F0D7F8A6652A
:1008200084F8506020688168C1F3407119B1816813
:100830005C4A1140816020688168C1F3007189B908
:100840008168594A114041F08051816057485849A8
:100850000068B0FBF1F04000801C00E0401E0090FA
:100860000028FBD120688168C1F3007141B9616D36
:1008700041F010016165A16D41F00101A165012503
:1008800001F0EDFB616DC90600D430B1606D40F040
:100890001000606501252846F8BD606D20F4807069
:1008A00040F0020060652068806810F0010F15D1EB
:1008B00040488068404900F00100896801F001016A
:1008C00008433E49896801F00101084306D13C49CB
:1008D00060688A6822F47C1202438A60E168606B77
:1008E000627E0843A16841EA4231084394F820102F
:1008F00040EA0140012904D1A18C324A02EB414176
:100900000843A16A29B101F47071E26A014342EA25
:1009100001002168CA682C4B1A400243CA60206853
:1009200001F09DFB0646206801F095FB304315D190
:10093000207E94F83010800340EA41002168CA68A4
:1009400044F202039A430243CA6094F83800012833
:100950000CD02068016921F00101016120690128A2
:100960002068016B21F00F0111D013E0D4E90F01D1
:100970000843D4E911121143084321680A6940F27F
:10098000FC739A43104340F001000861E6E7E26916
:10099000521E11430163606D20F0020040F001001F
:1009A000606578E7C0FFFF5FC0FFFF7F1000002099
:1009B000400D0300000004500001045000020450E8
:1009C000000304500000FEFF07C0F0FF10B5A8B000
:1009D0000446142122A8FFF740FC88216846FFF74F
:1009E0003CFC1B492068884230D14FF48040009085
:1009F000800301241E901020CDE9024007200490BE
:100A00000220019405900690C0050790684600F00A
:100A100067FA08B1FFF772FC0E48C16C41F400514F
:100A2000C164C16C01F400512791C16C41F0040113
:100A3000C164C06C22A900F0040027900B20CDE90E
:100A4000224000202490044800F054F828B010BD43
:100A500000000450001002400008004810B590F853
:100A600025100022022905D00421C16380F824202A
:100A7000012010BD01680B6823F00E030B600168B4
:100A80000B6823F001030B6090F84410046C01F034
:100A90001C03012101FA03F3636080F8251080F83C
:100AA0002420104610BD10B590F82510002402290E
:100AB00003D00421C16301241AE001680A6822F00E
:100AC0000E020A6001680A6822F001020A6090F8CA
:100AD0004410036C01F01C02012101FA02F25A6079
:100AE00080F82510002180F82410816B01B188471F
:100AF000204610BD2DE9F04FDFF8EC9100220127D0
:100B0000A9F1040B85B003254FF00F0C09F1040A7D
:100B1000ABF1040EE0E000BF07FA02F416EA0403AA
:100B20007ED00E7906F00306012E01D0022E1FD1D1
:100B300086680096560005FA06F80496009E26EA96
:100B400008060096D1F80C80049E08FA06F8009E6C
:100B500048EA0608C0F80880466891F80480A64371
:100B6000C8F3001808FA02F848EA0608C0F804803A
:100B7000D1F804806FEA0806B6070AD1C66AA64310
:100B8000C8F3C00494403443C4620C79E443A4071E
:100B90000AD0C4684FEA420805FA08F6B4438E68E2
:100BA00006FA08F62643C6600C7904F00304022C0A
:100BB00011D1D40800EB84060296D6F820805407A1
:100BC000E60E0CFA06F428EA04080C69B440029E0A
:100BD00044EA0804346204685600029605FA06F6F0
:100BE000B4430E7906F00308029E08FA06F848EAB4
:100BF0000408C0F800804C6814F4403F6BD03B4CB4
:100C0000266E46F001062666246E22F0030604F0E6
:100C100001040094364C34440294A468960700E022
:100C200059E04FEA16780CFA08F6B443B0F1904F49
:100C300004D0304EB04203D101261BE0002619E05B
:100C40002D4EB04201D1022614E02C4EB04201D10B
:100C500003260FE02A4EB04201D104260AE0294EB5
:100C6000B04201D1052605E0274EB04201D106264B
:100C700000E0072606FA08F62643029CA660D9F88B
:100C800000404E46D1F804809C435FEAC82800D556
:100C90001C433460DAF800405646D1F804809C4387
:100CA0005FEA882800D51C433460DBF800405E46CC
:100CB000D1F804809C435FEA883800D51C43346037
:100CC000DEF800407646D1F804809C435FEAC838DD
:100CD00000D51C433460521C0B681E46D3407FF481
:100CE0001BAF05B000F012B808040140001002402C
:100CF000000001400004004800080048000C0048C3
:100D000000100048001400480018004830BCBDE83E
:100D1000C08F0AB181617047816270470148806865
:100D200070470000040000200248816802781144E6
:100D3000816070470400002010B50024032000F0FB
:100D400071F80F2000F008F808B1012401E000F06C
:100D500025F8204610BD000070B50E4E0546002453
:100D6000307898B14FF47A71B1FBF0F00A49096814
:100D7000B1FBF0F000F030FE40B9102D06D2002299
:100D80002946501E00F02EF8756000E00124204630
:100D900070BD00000400002010000020094808B5C4
:100DA000016E41F001010166016E01F00101009147
:100DB000816D41F080518165806D00F08050009020
:100DC00008BD000000100240002809DB00F01F02EF
:100DD000012191404009800000F1E020C0F800119D
:100DE00070470000F0B40E4B1B680C46C3F302239F
:100DF000C3F10705042D00D90425191D072901D2C7
:100E0000002300E0DB1E012606FA05F1491E214001
:100E100099409E40761E16403143F0BC01F008BF59
:100E20000CED00E0064900F0070208684FF6FF03EA
:100E3000184040EA0220034A10430860704700004F
:100E40000CED00E00000FA051649B0F5007F0868D7
:100E5000C0F3412009D0022805D0086820F4C06002
:100E600040F480600860002070470128FBD00868CB
:100E700020F4C06040F4007008600B483222006823
:100E800050430A4AB0FBF2F0401C00E0401E4A69A1
:100E9000520501D50028F9D148694005E3D5032062
:100EA00070470000007000401000002040420F001A
:100EB0000248006800F4C060704700000070004005
:100EC0000248016841F48071016070470070004081
:100ED0000248016841F004010160704700100240BF
:100EE0002DE9F84F044600270088E54D3E460105F0
:100EF00004F1200B1DD5606E78B1B0F5800F11D0D4
:100F0000B0F5000F04D0B0F5400F22D001270FE05C
:100F1000E86840F48030E8601BE00021201D01F00B
:100F20007BF903E00021584601F00CFA070010D0CD
:100F30003E462088C00426D5A06EC0B1B0F1807FA7
:100F40001AD0B0F1007F0DD0B0F1407F19D0012749
:100F500018E0D5F88800616E20F440000843C5F819
:100F60008800E6E7E86840F48030E86009E00021A6
:100F7000201D01F051F903E00021584601F0E2F98B
:100F80000746F7B13E46206880033AD5A86D4FF07A
:100F90000008C00009D4A86D40F08050A865A86D75
:100FA0004FF0010800F080500090DFF8D8A2DAF886
:100FB000001041F48071CAF80010FFF7AFFE8146BF
:100FC00010E0D5F88800A16E20F040700843C5F805
:100FD0008800D8E7FFF7A2FEA0EB0900022801D99C
:100FE000032705E0DAF80000C005F3D5002F7CD018
:100FF0004FEA0706B8F1000F03D0A86D20F080502B
:10100000A8652078C00707D0D5F88800A16B20F02C
:1010100003000843C5F888002078800707D5D5F875
:101020008800E16B20F00C000843C5F888002078A8
:10103000400707D5D5F88800216C20F03000084320
:10104000C5F888002078000707D5D5F88800616CBE
:1010500020F0C0000843C5F888002078C00607D5F6
:10106000D5F88800A16C20F440700843C5F88800CA
:101070002078800607D5D5F88800E16C20F4406020
:101080000843C5F888002088800507D5D5F8880072
:10109000E16D20F440200843C5F888002088400511
:1010A00007D5D5F88800216E20F440100843C5F814
:1010B00088002078400607D5D5F88800216D20F4F7
:1010C00040500843C5F888002078000607D5D5F8B9
:1010D0008800616D20F440400843C5F888002088EE
:1010E000C00509D5D5F8880000E01CE0A16D20F40A
:1010F00040300843C5F8880020884FF0006780041E
:101100004FF080684FD5D5F88800E16E20F0406040
:101110000843C5F88800E06EB8423CD1E86840F466
:101120008010E8603FE0D5F8900010F4407015D0D2
:10113000D4F88410814211D0D5F89000D5F89010E1
:1011400020F4407041F48031C5F89010D5F890102B
:1011500021F48031C5F89010C5F89000C00710D078
:10116000FFF7DCFD074641F2883906E0FFF7D6FDC0
:10117000C11B494501D903263CE7D5F890008007FB
:10118000F4D5D5F89000D4F8841020F440700843CA
:10119000C5F890002EE7404505D10121201D01F042
:1011A0003BF800B106462068000317D5D5F8880043
:1011B000216F20F040600843C5F88800206FB842D6
:1011C00004D1E86840F48010E86007E0404505D1AC
:1011D0000121201D01F020F800B1064620684003DF
:1011E00017D5D5F88800616F20F040600843C5F836
:1011F0008800606FB84204D1E86840F48010E8606D
:1012000007E0404505D10121201D01F005F800B19E
:101210000646208840041AD5D5F88800A16F20F032
:1012200040500843C5F88800A06FB0F1805F03D03C
:10123000B0F1005F05D00AE00221201D00F0ECFFB4
:1012400003E00221584601F07DF800B106462088EF
:10125000000407D5D5F88800E16F20F080400843EE
:10126000C5F888002068C00307D555F8880FD4F862
:10127000801020F0004008432860304600F004B899
:10128000001002400070004018BCBDE8E08F000074
:101290002DE9F0470F4605006BD0494E306800F04D
:1012A0000700B84209D2306820F0070038433060A8
:1012B000306800F00700B8425BD12878414C8007C5
:1012C0000AD5A868A16801F0F001884204D9A16894
:1012D00021F0F0010143A1602878C0072CD0686894
:1012E000032811D0022812D0216898B1490500299D
:1012F0003FDAA16821F003010143A160FFF70EFD71
:10130000804641F2883910E021688901EFE72168C1
:101310008903ECE78907EAE7FFF700FDA0EB080186
:10132000494502D90320BDE8F087A068696800F04C
:101330000C00B0EB810FEFD1287880070AD5A868A0
:10134000A16801F0F001884204D2A16821F0F00107
:101350000143A160306800F00700B8420BD9306843
:1013600020F0070038433060306800F00700B842D2
:1013700001D00120D7E72878400705D5A068E968A3
:1013800020F4E0600843A0602878000706D5A06834
:10139000296920F4605040EAC100A06000F03EF8E6
:1013A000A168094AC1F30311515C01F01F01C84053
:1013B0000649086006480068BDE8F047FFF7CCBC66
:1013C00000200240001002402C2E000810000020D7
:1013D000080000200548064900688968054AC1F3ED
:1013E0000221515C01F01F01C8407047100000202D
:1013F000001002406C2E0008054806490068896804
:10140000054AC1F3C221515C01F01F01C840704779
:1014100010000020001002406C2E000870B5254915
:10142000002318468A68CC6812F00C0204F0030608
:10143000214C4FEA640509D00C2A05D0042A32D089
:10144000082A00D1284670BD012E10D10B681B0759
:1014500004D4D1F89430C3F3032302E00B68C3F340
:101460000313164E56F82330DAB10C2AEBD1C868B4
:1014700000F00300022818D0032818D01846CA68C4
:10148000CB68C2F30212C3F306234343521CB3FBDF
:10149000F2F2C868C0F34160401C4000B2FBF0F0BB
:1014A00070BD184670BD204670BD2046E7E728464F
:1014B000E5E70000001002400024F4003C2E000884
:1014C0002DE9F84304006FD0FD4DA86800F00C062C
:1014D000E86800F003072078C00664D576B10C2ECA
:1014E00001D1012F0AD0A069002828687AD040F0E5
:1014F00001002860FFF712FC80465DE02868800745
:1015000002D5A0690028DED0216A2868000703D52B
:10151000286800F0F00004E0D5F89400F02202EA18
:101520001010814216D9084600F090FF00283BD1E8
:10153000286840F0080028602868216A20F0F00040
:10154000084328606868E16920F47F4040EA012090
:10155000686016E0286840F0080028602868216A62
:1015600020F0F000084328606868E16920F47F40BB
:1015700040EA0120686026B9206A00F067FF002871
:10158000D5D1FFF74BFFA968CE4AC1F30311515CD7
:1015900001F01F01C840CC490860CC480068FFF743
:1015A000DBFB00287ED12EE0CAE000BFFFF7B6FBD0
:1015B000A0EB0800022876D828688007F6D52868AE
:1015C00040F0080028602868216A20F0F0000843F5
:1015D00028606868E16920F47F4040EA0120686083
:1015E00011E0FFE720F001002860FFF797FB80463D
:1015F00006E000BFFFF792FBA0EB08000228DAD854
:1016000028688007F6D42078C00740D0082E18D06C
:101610000C2E01D1032F14D06068B0F5803F17D095
:10162000B0F5A02F286817D020F4803028602868F3
:1016300020F4802028606068E0B1FFF76FFB8046EF
:1016400014E02868800322D56068002878D01EE066
:10165000286840F48030EDE740F480202860F7E708
:10166000FFF75CFBA0EB08006428A4D8286880037F
:10167000F6D50CE0FFF752FB804605E0FFF74EFB86
:10168000A0EB0800642896D828688003F6D4207858
:1016900080073BD5042E11D00C2E01D1022F0DD086
:1016A000E06801E086E1D6E0002828681ED040F41A
:1016B00080702860FFF732FB07460CE02868400581
:1016C0000CD5E0680028C1D008E000BFFFF726FB7A
:1016D000C01B022893D828684005F7D56868217C8C
:1016E00020F0F85040EA016068600FE020F480705C
:1016F0002860FFF713FB074605E000BFFFF70EFB6E
:10170000C01B0228B1D828684005F7D4207800070C
:1017100029D560690028D5F8940012D040F0010066
:10172000C5F89400FFF7FAFA074604E0FFF7F6FA67
:10173000C01B022899D8D5F894008007F6D512E08E
:1017400000E120F00100C5F89400FFF7E7FA074632
:1017500005E000BFFFF7E2FAC01B02287BD8D5F8EE
:1017600094008007F6D42078400766D5A86D00273E
:10177000C00008D4A86D40F08050A865A86D01276E
:1017800000F08050009052480168C90512D40168E9
:10179000814641F480710160FFF7C0FA804605E0A0
:1017A000FFF7BCFAA0EB0800022854D8D9F80000D3
:1017B000C005F5D5A068012816D00528D5F89000F9
:1017C00017D020F00100C5F89000D5F8900020F067
:1017D000040000BFC5F89000A06841F28839C0B18C
:1017E000FFF79CFA80460FE0D5F8900040F001002A
:1017F000F0E740F00400C5F89000F5E7FFF78EFA37
:10180000A0EB0801494526D8D5F890008007F5D50A
:101810000EE0FFF783FA804606E000BFFFF77EFA8E
:10182000A0EB0801494516D8D5F890008007F5D4FB
:101830001FB1A86D20F08050A865A06AF0B30228FF
:101840000AD00C2E7ED0286820F080702860FFF728
:1018500065FA0446B0E0ACE0E868E26A00F0030133
:10186000914229D1216B00F0700209011039914297
:1018700022D1626B00F4FE41B1EB022F1CD1A26BAE
:1018800000F40031072A01D0012200E00022914239
:1018900012D1A18F00F4C00249084905A1F5001139
:1018A000914209D194F8401000F0C06049084906FF
:1018B000A1F1007181425ED00C2E0BE072E00000BD
:1018C000001002402C2E000810000020080000200C
:1018D0000070004079D02868400176D42868C000A4
:1018E00073D4286820F080702860FFF717FA064646
:1018F00005E000BFFFF712FA801B022859D82868BC
:101900008001F7D4D4E90B016FF00F0202EB011153
:101910000843A18F5204490802EB4151626B41EA2E
:101920000221084394F840104FF07E42490802EB30
:1019300041610843A16B090940EA4140E968244A32
:10194000114000E041E00843E860286840F0807002
:101950002860E86840F08070E860FFF7DFF904462F
:1019600005E000BFFFF7DAF9001B022821D828683C
:101970008001F7D527E02868800124D4286840F04A
:1019800080702860E86840F08070E860FFF7C6F972
:10199000044604E0FFF7C2F9001B022809D82868B2
:1019A0008001F7D50FE000BFFFF7B8F9001B022850
:1019B00002D90320BDE8F88328688001F4D4E868E0
:1019C00004490840E8600020F4E70120F2E7000045
:1019D0008C809DF9FCFFEEFE10B5401EB0F1807FBB
:1019E00001D3012010BD4FF0E02460610F2160178A
:1019F00001F01EF90020A06107202061002010BD29
:101A00007047704770470146806FC96F0843704741
:101A10002DE9F04102680446D0691168936840F6E8
:101A20000F0528424FF0000505D186067ED58E06AB
:101A30007CD5616E1BE1994F03F001060F403743DF
:101A400074D0C70709D0CF0507D501271762D4F88E
:101A5000802042F00102C4F8802082070AD5DA070C
:101A600008D0276802223A62D4F8802042F00402AB
:101A7000C4F8802042070AD5DA0708D02368042278
:101A80001A62D4F8802042F00202C4F880200207D3
:101A90000CD501F02002324308D0236808221A62D4
:101AA000D4F8802042F00802C4F8802002050BD54B
:101AB0004A0109D523684FF400621A62D4F88020E5
:101AC00042F02002C4F88020D4F88020002A35D0CB
:101AD000800605D5880603D5616E09B12046884782
:101AE000D4F8800021688968490602D410F0280FD4
:101AF00026D0204600F0D6FD2068806840061AD522
:101B00002068083050E8001F21F0400140E8001232
:101B1000002AF5D1206F70B161498163206FFEF713
:101B2000C2FF00280AD0206F816B01E00EE0204642
:101B3000BDE8F04108472046FFF764FFBDE8F081AB
:101B40002046FFF75FFFC4F88050F7E7276E202696
:101B5000012F7BD1C70679D5CF0677D5102010622B
:101B600020688068400641D5216F086840680004FD
:101B7000000CE3D0B4F858208242DFD9A4F85A0010
:101B80000868006880062AD4206850E8001F21F405
:101B9000807140E80012002AF6D12068083050E831
:101BA000001F21F0010140E80012002AF5D1206851
:101BB000083050E8001F21F0400140E80012002AE0
:101BC000F5D1E6672566216851E8000F20F0100086
:101BD00041E80002002AF6D1206FFEF73FFFB4F87B
:101BE0005800B4F85A10401A81B22AE0B4F85800EC
:101BF000B4F85A10401A81B2B4F85A0000289DD0A7
:101C000000299BD0226852E8000F20F4907042E82F
:101C10000003002BF6D12068083050E8002F22F096
:101C2000010240E80023002BF5D1E66725666566D2
:101C3000226852E8000F20F0100042E80003002B59
:101C4000F6D12046FFF7DCFE78E7FFE7C70209D5AB
:101C50005B0207D54FF4801010622046BDE8F041CA
:101C6000FFF7CFBE020606D50A0604D5A16E0029ED
:101C70007FF45DAF62E74006E6D54806E4D520462E
:101C8000026852E8001F21F0400142E80013002BD7
:101C9000F6D18667856600F0D6F94FE7200100048B
:101CA0009126000810B5040002D0A06F10B107E023
:101CB000012010BD002084F87400204600F026F8B2
:101CC0002420A0672068016821F0010101602046FE
:101CD00000F0ACFD0128ECD0606A10B1204600F0A5
:101CE00045FC2068416821F490414160206881688A
:101CF00021F02A0181602068016841F00101016042
:101D00002046BDE8104000F095BC00002DE9F041F0
:101D1000A8B00446142122A8FEF79FFA882168463D
:101D2000FEF79BFA32492068324C03270226002531
:101D30004FF00708884229D1009668460F95FFF7B3
:101D4000CFF808B1FEF7DAFAA06D40F40030A065D4
:101D5000A06D00F400302790E06C40F00100E064DA
:101D6000E06C24AA00F0010027900C20CDE92206A7
:101D700082E8A00122A94FF09040FEF7BBFE0022AE
:101D800011462620FFF72EF826202BE01A4988421C
:101D90002AD10420009010956846FFF7A1F808B1F9
:101DA000FEF7ACFAA06D40F48020A065A06D00F4B1
:101DB00080202790E06C40F00400E064E06C24AAEE
:101DC00000F0040027903020CDE9220682E8A0012F
:101DD00022A90A48FEF78EFE002211462720FFF7AF
:101DE00001F82720FEF7F0FF28B0BDE8F0810000E1
:101DF0000044004000100240004800400008004835
:101E000030B4C36F202B20D1E1B1DAB190F8743037
:101E1000012B1AD0012380F87430002303660C4C88
:101E20000368A3420BD05B681B0208D5046854E822
:101E3000003F43F0806344E80035002DF6D130BC0C
:101E400000F018BE012030BC70470220FBE7000004
:101E5000008000402DE9F041374C00254FF4807898
:101E600061784FF6FF76FF290BD365704146334802
:101E7000FEF7F3F933460A2231A1344800F088F81E
:101E800051E0324A90424ED12C48A2784254491C2B
:101E9000C9B20844617010F8011C0A2943D110F836
:101EA000021C0D293FD110F8030C23283BD12849EF
:101EB0002248FEF7DDF94FF0904730B125A000F041
:101EC000A7FE0120207002460BE021491B48083183
:101ED000FEF7CEF950B124A000F09AFE0220207047
:101EE000002220213846FEF714FF09E01849134864
:101EF0001031FEF7BDF918B120A000F089FE257061
:101F0000334662780D49114800F042F81EA000F0F7
:101F10007FFE0E48FFF777FD2128FAD06570414615
:101F20000648FEF79AF9BDE8F04103490122891CF1
:101F30000648FFF765BF00000000002018000020E1
:101F4000CAFDBEDDD2E7B3F6000000007C01002030
:101F5000002E000849276D20696E206D6F64655F53
:101F600031210D0A0000000049276D20696E206DA7
:101F70006F64655F32210D0A0000000049276D2063
:101F800073746F70210D0A0068656C6C6F0D0A0028
:101F90002DE9F8430446806F1F4616460D4620285B
:101FA0004FD1CDB1C6B194F87400012849D00120B9
:101FB00084F874004FF00008C4F880802120A067E6
:101FC000FEF7ACFEA4F850608146A4F85260A06809
:101FD000B0F5805F03D004E00120BDE8F8832069FC
:101FE00028B12E465FF0000584F8748010E00026CA
:101FF000FAE78021204600F099FDB8B9C6B116F87D
:10200000010B21680885B4F85200401EA4F8520064
:10201000B4F852004B464FF0000200970028E8D178
:102020004FF04001204600F081FD30B10320D4E79D
:1020300035F8020BC0F30800E3E72020A06700207A
:10204000CBE70220C9E77047FEE700EB8100006E96
:1020500000F0F84070478068C0F3C00070478068A7
:10206000C0F3800070478068C0F38000704704238D
:1020700003EAD15310B518444369C1F3045107244E
:102080008C40A3438A401343436110BD00EB8100A1
:10209000016E21F0004111430166704730B589B0EF
:1020A000002406940794182168460894FEF7D5F892
:1020B0001B481A490425C0E900148460C460C0E9C3
:1020C0000445047644760121C16180F82040846291
:1020D000C46280F83040446380F83840FEF790FBDB
:1020E00008B1FEF70BF906A90D480694FEF708F9AA
:1020F00008B1FEF703F90B4800900620CDE9010472
:102100007F200594CDE9030569460548FEF776F979
:10211000002801D0FEF7F2F809B030BD00000450ED
:10212000180100200200300470B586B01421684602
:10213000FEF793F81648C16C41F00401C164C16C0C
:1021400001F004010591C16C41F00101C164C06C52
:102150004FF0904600F0010005900022202130460B
:10216000FEF7D7FD4FF40050002401258DE8310023
:1021700069460848FEF7BEFC20200090CDE90154D6
:10218000694630460394FEF7B5FC06B070BD00000A
:1021900000100240000800480D4810B50B490160CE
:1021A0004FF4E1314160002181600C22C160C0E93F
:1021B00004128161C16101624162FFF773FD002871
:1021C00003D0BDE81040FEF799B810BD00440040B0
:1021D0007C0100200D4810B50B4901604FF41651E9
:1021E0004160002181600C22C160C0E9041281615C
:1021F000C16101624162FFF755FD002803D0BDE8CF
:102200001040FEF77BB810BD0048004000020020DF
:10221000FEE7FEE7704700002DE9F041444C05461B
:102220008846E0680026810728680DD0E16801F043
:102230000301814216D1A8B1E0686968C0F30210B9
:10224000401C88420ED120E0012804D0022805D08D
:10225000032807D108E02168890701E021684905C2
:10226000002907DB01265FE02168890302D4216889
:102270004903F5E7E1686A686FF00F0321F0730125
:1022800003EB021211430143E160206820F08060FB
:102290002060FEF743FD074605E000BFFEF73EFD68
:1022A000C01B022837D820680001F7D4B8F1000F0E
:1022B00018D0B8F1010F1ED0287D4FF07E414008A4
:1022C00001EB4060A96840EA01202169194A1140E8
:1022D00008432061206840F080602060FEF71EFD0A
:1022E00007461AE0A868E9680002090940EA414087
:1022F0002169114AEBE7288A1049400801EB405058
:10230000A96840EA012021690D4AE0E7FEF706FDD1
:10231000C01B022801D9032606E020680001F5D57C
:102320002069A969084320613046BDE8F0810000BA
:1023300000100240FF80FFF9FF80FDFF0000E0FF7A
:10234000FF809FFF2DE9F0413D4C06468846E0683E
:102350000025810730680DD0E16801F0030181425A
:1023600016D1A8B1E0687168C0F30210401C884221
:102370000ED120E0012804D0022805D0032807D17F
:1023800008E02168890701E021684905002907DB89
:10239000012551E02168890302D421684903F5E74A
:1023A000E16872686FF00F0321F0730103EB021212
:1023B00011430143E160206820F080502060FEF767
:1023C000ADFC074605E000BFFEF7A8FCC01B0228D5
:1023D00029D820688000F7D4B8F1000F15D0307CE0
:1023E0004FF07E41400801EB4060B16840EA0120B7
:1023F0006169144A114008436061206840F08050D0
:102400002060FEF78BFC07460FE0B068F168000221
:10241000090940EA414061690B4AEBE7FEF77EFC9F
:10242000C01B022801D9032506E020688000F5D5ED
:1024300060697169084360612846BDE8F081000069
:1024400000100240FF80FFF9FF80FDFFF8B51C4D32
:1024500006460024A86DC00002D5FEF729FD0DE058
:10246000A86D40F08050A865A86D00F080500090E5
:10247000FEF71EFDA96D21F08051A965B0F5007F22
:1024800004D0802E07D94FF003040AE0802E08D92B
:10249000A02E01D804E001D1022402E0702E00D168
:1024A00001240848016821F0070121430160006808
:1024B00000F00700A04201D00120F8BD0020F8BDC7
:1024C00000100240002002407047FEF72DBC0000C3
:1024D00010B596B044216846FDF7BFFE142111A83F
:1024E000FDF7BBFE4FF40070FEF7AEFC08B172B60C
:1024F000FEE7FEF7E5FC184850F8901F21F01801A0
:1025000001601420009001200290002460210690B8
:10251000CDE907410221CDE90A100C9028200D9049
:102520000720CDE90E0168461091FEF7C9FF08B1FA
:1025300072B6FEE70F2011900320CDE91204149427
:10254000042111A81594FEF7A3FE08B172B6FEE7A8
:10255000FEF7BEFC16B010BD001002400248016834
:1025600041F470010160704788ED00E090F824109C
:10257000C90706D001684A68836A22F400321A4308
:102580004A6090F82410890706D501684A68C36A32
:1025900022F480321A434A6090F82410490706D585
:1025A00001684A68036B22F480221A434A6090F85B
:1025B0002410090706D501684A68436B22F40042DB
:1025C0001A434A6090F82410C90606D501688A6843
:1025D000836B22F480521A438A6090F82410890693
:1025E00006D501688A68C36B22F400521A438A60D8
:1025F00090F82410490611D501684A68036C22F44A
:1026000080121A434A60016CB1F5801F06D101683F
:102610004A68436C22F4C0021A434A6090F82410BE
:10262000090606D501684A68806C22F4002202433C
:102630004A607047F8B500260446C0F88060FEF78F
:102640006DFB0546206800686FF07E47000708D5DF
:102650002B4600224FF400112046009700F066FA46
:1026600060B92068006840070AD52B4600224FF465
:1026700080012046009700F059FA08B10320F8BD08
:102680002020A067E067266684F874600020F8BD0B
:1026900010B5806A0021A0F85A10A0F85210FFF778
:1026A000B1F910BD016851E8002F22F4907241E8A1
:1026B0000023002BF6D10168083151E8002F22F0E9
:1026C000010241E80023002BF5D1016E012908D158
:1026D000026852E8001F21F0100142E80013002BAD
:1026E000F6D12021C167002101664166704710B50F
:1026F000B0F85C20C36F0168222B04D0088B40F037
:102700000800088310BD898C436D11401980416D0C
:10271000891C4165B0F85A10491EA0F85A10B0F84B
:102720005A100029EED1026852E8001F21F490717E
:1027300042E80013002BF6D10168083151E8002F60
:1027400022F0010241E80023002BF5D12021C167CE
:1027500000214166026E012A02D0FFF77BFB10BD0B
:102760000166026852E8001F21F0100142E80013E0
:10277000002BF6D10168CA69D243D20601D41022D7
:102780000A62B0F85810FFF73BF910BD10B5B0F869
:102790005C20C36F0168222B04D0088B40F0080036
:1027A000088310BD898C1140426D1170416D491C28
:1027B0004165B0F85A10491EA0F85A10B0F85A10E6
:1027C0000029EED1026852E8001F21F4907142E81E
:1027D0000013002BF6D10168083151E8002F22F0D8
:1027E000010241E80023002BF5D12021C16700211F
:1027F0004166026E012A02D0FFF72CFB10BD016674
:10280000026852E8001F21F0100142E80013002B7B
:10281000F6D10168CA69D243D20601D410220A62F5
:10282000B0F85810FFF7ECF810BD00002DE9F041AA
:102830000446016880682269E369104362690025E3
:102840001A431043814F0A68814B1A4002430A60C1
:1028500020684168E26821F44051114341602168D9
:10286000A069B94201D0226A10438A6822F430621A
:1028700002438A607749226877488A420DD1D0F8AE
:10288000880010F0030006D0012866D0022854D03A
:10289000032851D163E001204FE070498A420BD1F7
:1028A000D0F8880010F00C0047D0042845D0082844
:1028B00051D00C2840D152E069498A420BD1D0F85E
:1028C000880010F0300038D0102846D0202842D0A0
:1028D000302831D143E063498A420BD1D0F88800D7
:1028E00010F0C00029D0402837D0802833D0C0282D
:1028F00022D134E05C498A420ED1D0F8880010F42D
:1029000040701AD0B0F5807F27D0B0F5007F22D07C
:10291000B0F5407F10D122E0BA420DD1D0F8880046
:1029200010F4406009D0B0F5806F16D0B0F5006F9C
:1029300011D0B0F5406F12D010204C4900264FF452
:102940000043BA422ED160B102280DD004280DD028
:1029500008286FD10EE00220EFE70420EDE7082001
:10296000EBE7FEF737FD03E00B4603E0FEF756FD0D
:10297000030060D0626802EB420098425AD8B3EB81
:10298000023F57D8190E1B02500818187141002336
:10299000FDF716FC364AA0F5407191424AD82168ED
:1029A000C86048E0E2694FF6EF779A4227D10928DC
:1029B00040D2DFE800F005080D3F213F3F3F0E0009
:1029C000FEF708FD01E0FEF717FD030001D132E03C
:1029D0000B466068590001EB5001B1FBF0F0A0F12B
:1029E0001001B94226D84FF6F0710140C0F3420001
:1029F00001432068C1601EE0FEF710FDE5E70928ED
:102A000018D2DFE800F005080D171D1717170E0084
:102A1000FEF7E0FC01E0FEF7EFFC030001D10AE065
:102A20000B46606803EB5001B1FBF0F0A0F1100120
:102A3000B94208D9012566662846A666BDE8F08138
:102A4000FEF7ECFCE9E780B2A9E700000080004057
:102A5000F369FFEF003801400010024000440040DD
:102A600000480040004C0040005000400024F400AA
:102A7000FFFC0F0030B54165A0F85820A0F85A209F
:102A80000022426681684FF48055FF23A94204D199
:102A9000016971BB40F2FF1131E07F2439B3B1F11C
:102AA000805F29D0A0F85C20C0F880202221C16777
:102AB0000168083151E8003F43F0010341E8003468
:102AC000002CF5D18168A94201D10169E9B115490C
:102AD000416680F874200169C9B1026852E8001F9C
:102AE00041F4907142E80013002BF6D118E001691F
:102AF00041B9A0F85C30D7E7016919B13F21A0F8CE
:102B00005C10D1E7A0F85C40CEE70749E0E7026837
:102B100052E8001F41F0200142E80013002BF6D1DB
:102B2000002030BD8D270008EF2600082DE9F04772
:102B30009A4617460E4604464FF000094FF020080B
:102B4000089D4AE0681C48D0FEF7E8F8A0EB0A00B0
:102B5000A8422AD84DB32068016849073DD5C0690D
:102B6000C043000539D421684FF400600862206832
:102B700050E8001F21F4D07140E80012002AF6D17D
:102B80002068083050E8001F21F0010140E80012E1
:102B9000002AF5D1C4F87880C4F87C80C4F880801D
:102BA00084F874900320BDE8F087216851E8000F95
:102BB00020F4D07041E80002002AF6D120680830E5
:102BC00050E8001F21F0010140E80012002AF5D171
:102BD000C4F87880C4F87C80E2E72068C06936EAEF
:102BE000000004D00020B842ACD00020DBE7012078
:102BF000F9E700000148FEF70BBF00007C01002050
:102C00000148FEF705BF000000020020FEE70000BB
:102C10000FB4054B10B503A9044A029800F027F839
:102C200010BC5DF814FB00004D2D000814000020BE
:102C30000907090E002804DB00F1E02080F80014E9
:102C4000704700F00F0000F1E02080F8141D70477D
:102C500002E008C8121F08C1002AFAD17047704765
:102C6000002001E001C1121F002AFBD170472DE9AD
:102C7000F84F9946924688460546002706E02528E3
:102C80000AD051464A4690476D1C7F1C2878002880
:102C9000F5D1384600F056B8002315F8011F184644
:102CA0002E2915D115F8011F04232A290DD06FF004
:102CB0002F022978A1F13004092C09D800EB8000FB
:102CC00002EB400008446D1CF3E758F8040B6D1C40
:102CD0002A78002ADDD0632A07D0732A0FD0104645
:102CE00051464A4690477F1C2AE018F8042B8DF87D
:102CF000002000218DF801106E46012103E058F8F4
:102D0000046B4FF0FF315A074FF0000401D409E083
:102D1000641C84420BDA8C42FADB325D002AF7D164
:102D200005E0641C8C42FCDB305D0028F9D12744AF
:102D300004E016F8010B51464A469047641EF8D24B
:102D40006D1CA3E718BCBDE8E08F000013B54FF67B
:102D5000FF73012269460248FFF71AF900981CBD6B
:102D60007C01002086B0FDF7E7FFFFF7B1FBFFF71E
:102D7000DBF9FFF793F9FFF70FFAFFF72BFA1422AD
:102D800011496846FDF750FA10A0FFF741FF9DF882
:102D9000011014A0FFF73CFF642314226946154874
:102DA000FFF7F6F86423022213A11248FFF7F0F8A8
:102DB000012212490F48FFF723F8012220214FF08A
:102DC0009040FDF7A6FFFEE7182E000848656C6CE2
:102DD0006F2053544D33324C3437365247210D0A4D
:102DE000000000005478446174615B315D3D202532
:102DF000630D0A007C0100200D0A00000200002083
:102E00006D6F6465312300006D6F646532230000CF
:102E100073746F702300000068656C6C6F20776FAF
:102E2000726C64210000000000000000000000003F
:102E3000000000000102030406070809A086010043
:102E4000400D0300801A060000350C0040420F00C0
:102E500080841E0000093D0000127A000024F40066
:102E600000366E010048E801006CDC020000000042
:102E700001020304942E0008000000201800000046
:102E8000502C0008AC2E000818000020700600002E
:102E9000602C0008FF00000001000000100000008E
:0C2EA0000000000000093D0000000000E0
:040000050800018965
:00000001FF
